:020000040800F2
:100000003004002045010008890100088B01000828
:100010008F0100089301000897010008000000000C
:100020000000000000000000000000009B0100082C
:100030009D010008000000009F010008A1010008C8
:100040005F0100085F0100085F0100085F01000810
:100050005F0100085F0100085F0100085F01000800
:100060005F0100085F0100085F0100085F010008F0
:100070005F0100085F0100085F0100085F010008E0
:100080005F0100085F0100085F0100085F010008D0
:100090005F0100085F0100085F0100085F010008C0
:1000A0005F0100085F0100085F0100085F010008B0
:1000B0005F0100085F0100085F0100085F010008A0
:1000C0005F0100085F0100085F0100085F01000890
:1000D0005F0100085F0100085F0100085F01000880
:1000E0005F0100085F0100085F0100085F01000870
:1000F0005F0100085F0100085F0100085F01000860
:100100005F0100085F0100085F0100085F0100084F
:100110005F0100085F0100085F0100085F0100083F
:100120005F0100085F0100085F0100085F0100082F
:10013000DFF80CD000F0E8FD00480047810100081E
:10014000300400200648804706480047FEE7FEE7E7
:10015000FEE7FEE7FEE7FEE7FEE7FEE7FEE7FEE777
:100160001D0900083101000810B54FF4A06000F02F
:100170001BF810BD10B5FFF7F7FF00F055FD10BDDF
:10018000FFF7F8FF00BFFEE7704700BFFEE700BFC4
:10019000FEE700BFFEE700BFFEE77047704770470D
:1001A00010B500F079FC10BD31490143314A1160AE
:1001B000704770B5002100230F22C4780CB32D4C7A
:1001C000246804F4E064C4F5E064210AC1F1040386
:1001D000CA40447804FA03F18478144021430901A9
:1001E000254C0678A155047804F01F050124AC4085
:1001F00005786D114FF0E02606EB8505C5F8004146
:1002000009E0047804F01F050124AC401B4D06787A
:10021000761145F8264070BD194A0A400243154B35
:100220001B1F1A60704739B1124A121D126802432F
:10023000104B1B1D1A6006E00E4A121D1268824305
:100240000C4B1B1D1A607047042808D14FF0E021A9
:10025000096941F004014FF0E022116107E04FF01D
:10026000E021096921F004014FF0E022116170479B
:100270000000FA050CED00E000E400E080E100E0A1
:1002800080FFFF1F01460020FE4A106800F0380082
:10029000084310607047FB49096821F00801F94ADA
:1002A000116011460968014311607047F5490968FA
:1002B00021F01001F34A11601146096801431160F1
:1002C0007047F148EF494860F04848607047EE4891
:1002D000EC494860ED4848607047EA48006940F0E2
:1002E0008000E84908617047E648006940F08000F6
:1002F000E449086170470420E249C96811F0010F20
:1003000001D001200EE0DF49C96811F0040F01D0CF
:10031000022007E0DB49C96811F0100F01D003206B
:1003200000E00420704700B502460423FFF7E3FF16
:10033000034603E0FFF7DFFF0346521E012B01D106
:10034000002AF7D102B90523184600BD30B504468E
:1003500004254FF43020FFF7E6FF0546042D17D1A2
:10036000C848006940F00200C64908610846446177
:10037000006940F0400008614FF43020FFF7D3FFE0
:100380000546C048006941F6FD710840BD49086155
:10039000284630BD10B504244FF43020FFF7C3FFCA
:1003A0000446042C16D1B748006940F00400B54952
:1003B00008610846006940F0400008614FF43020B1
:1003C000FFF7B1FF0446AF48006941F6FB710840F2
:1003D000AC490861204610BD00B502460423FFF772
:1003E0008AFF034603E0FFF786FF0346521E012BF8
:1003F00001D1002AF7D102B90523184600BD10B576
:1004000004244FF43020FFF7E7FF0446042C16D1F4
:100410009C48006940F004009A4908610846006958
:1004200040F0400008614FF43020FFF7D5FF04464C
:100430009448006941F6FB710840924908612046E2
:1004400010BD00208F49C96911F0020F01D00120B1
:1004500000E00020704730B5A5250424FFF7F1FF28
:1004600000B100254FF43020FFF75DFF0446042C57
:100470003AD1854883498860844888600846006985
:1004800040F0200008610846006940F04000086123
:100490004FF43020FFF747FF0446042C1BD1794866
:1004A000006941F6DF710840764908610846006935
:1004B00040F01000086176480580E002FFF733FF46
:1004C0000446052C10D06F48006941F6EF710840D2
:1004D0006C49086108E0052C06D06A48006941F6BD
:1004E000EF71084067490861204630BD78B506467F
:1004F0000C46042500200090E802FFF714FF054693
:10050000042D24D15F48006940F001005D49086175
:100510003480E802FFF707FF0546042D10D1B01C18
:100520000090200C00990880E802FFF7FCFE0546C9
:100530005448006941F6FE7108405249086106E0DE
:100540005048006941F6FE7108404E49086128464E
:1005500078BD70B504460D460426F002FFF7E3FEB1
:100560000646042E11D14748006940F00100454974
:1005700008612580F002FFF7D6FE06464148006973
:1005800041F6FE7108403F490861304670BD70B5C4
:1005900005460E460424E002FFF7C5FE0446042C7F
:1005A00017D139483749886038488860084600695B
:1005B00040F0100008612E80E002FFF7B4FE044610
:1005C000052C06D02F48006941F6EF7108402D49EF
:1005D0000861204670BD2DE9F04304464FF6FF76D2
:1005E0003746B046B1460425E443E6B2C4F30727D4
:1005F000C4F307484FEA1469E802FFF794FE054682
:10060000042D49D120481F49886020488860084649
:10061000006940F010000861FF2E06D01C48083029
:100620000680E802FFF77FFE0546042D08D1FF2F64
:1006300006D017480A300780E802FFF774FE054627
:10064000042D0AD1B8F1FF0F07D011480C30A0F8E3
:100650000080E802FFF767FE0546042D0AD1B9F1D4
:10066000FF0F07D00A480E30A0F80090E802FFF70D
:100670005AFE0546052D0FD00248006941F6EF717C
:10068000084007E00020024023016745AB89EFCD19
:1006900000F8FF1F664908612846BDE8F08330B5C1
:1006A000054604244FF43020FFF73DFE0446042C99
:1006B00041D160485E4988605F48886008460069AB
:1006C00040F0200008610846006940F040000861E1
:1006D0004FF43020FFF727FE0446042C22D1544863
:1006E000006941F6DF710840514908610846006918
:1006F00040F0100008611DB100205049088002E060
:10070000A5204E4908804FF43020FFF70CFE044628
:10071000052C10D04648006941F6EF710840444965
:10072000086108E0052C06D04148006941F6DF71F8
:1007300008403F490861204630BDF0B505460E46E9
:10074000174604243B483A4988603B488860E002E9
:10075000FFF7E9FD0446042C19D13548006940F043
:1007600010003349086147F0F8003043284333490B
:10077000891C0880E002FFF7D6FD0446052C06D050
:100780002B48006941F6EF7108402949086120466D
:10079000F0BD2748C069800870472548006A704747
:1007A00000202349096811F0200F01D0012000E04A
:1007B0000020704729B11E4A126902431C4B1A617E
:1007C00004E01B4A12698243194B1A6170470146C3
:1007D0000020012908D1164AD26912F0010F01D078
:1007E000012008E0002006E0114AD2680A4201D048
:1007F000012000E0002070470D49C86070470420C8
:100800000B49C96811F0010F01D001200EE0084921
:10081000C96811F0040F01D0022007E00449C9683B
:1008200011F0100F01D0032000E0042070470000F9
:100830000020024023016745AB89EFCD00F8FF1F80
:100840000CB50020019000906B48006840F48030A7
:100850006949086000BF6848006800F400300090F3
:100860000198401C0190009818B90198B0F5A06F4C
:10087000F1D16148006810F4003F02D001200090DF
:1008800001E0002000900098012842D15B480068F8
:1008900040F01000594908600846006820F0030045
:1008A00008600846006840F002000860524840684E
:1008B000514948600846406848600846406840F42E
:1008C000806048600846406820F47C104860084614
:1008D000406840F4E81048600846006840F08070C6
:1008E000086000BF4448006810F0007FFAD042481A
:1008F000406820F00300404948600846406840F0E6
:100900000200486000BF3C48406800F00C00082826
:10091000F9D10CBD10B5FFF793FF10BD10B53648E7
:10092000006840F0010034490860084640683449D6
:1009300008403149486008460068324908402E495D
:1009400008600846006820F4802008600846406877
:1009500020F4FE0048604FF41F008860FFF7DAFFC4
:100960004FF000602849086010BD10B5002100203C
:100970000022214B5B6803F00C0121B1042906D051
:10098000082928D107E0214B214C236027E01F4B89
:100990001F4C236023E0184B5B6803F47010164B68
:1009A0005B6803F48032022303EB904022B9194BB9
:1009B0004343174C23600DE00F4B5B6813F4003F7B
:1009C00004D0144B4343124C236003E00F4B4343CA
:1009D0000F4C236003E00D4B0D4C236000BF00BFA4
:1009E000054B5B68C3F303130B4CE15C084B1B68BE
:1009F000CB40074C236010BD001002400020024095
:100A00000000FFF8FFFFF6FE08ED00E000127A009C
:100A10000000002000093D000400002030B52348FC
:100A2000006842F21072B0FBF2F1B1F1807F01D3A5
:100A300001201BE021F07F40401E4FF0E02250617A
:100A400050170F22002806DA1301194C00F00F0589
:100A50002D1F635502E01301164C235400BF0020E4
:100A60004FF0E022906107201061002008B100BF24
:100A7000FEE74FF0E020006940F001004FF0E02178
:100A8000086130BD01B50C490098086000BF0A48F4
:100A900000680028FBD108BD0748006820B106485F
:100AA0000068401E044908607047000000000020F4
:100AB00018ED00E000E400E0140000202DE9F04F04
:100AC0000268436800248B4E0F68D1F804C0D1F847
:100AD0000880D1F80C90002517E0344407EB031A86
:100AE00003EB040B8AEA0B0A0CEB531B8AEA0B0A92
:100AF000524408EB021A02EB040B8AEA0B0A09EBD8
:100B0000521B8AEA0B0A53446D1C202DE5D3026068
:100B10004360BDE8F08F2DE9F04F02684368764CE2
:100B2000744E0F68D1F804C0D1F80880D1F80C9049
:100B3000002519E008EB021A02EB040B8AEA0B0A03
:100B400009EB521B8AEA0B0AA3EB0A0307EB031A11
:100B500003EB040B8AEA0B0A0CEB531B8AEA0B0A21
:100B6000A2EB0A02A41B6D1C202DE3D3026043609C
:100B7000BDE8F08F2DE9F04706460C4617464FF0CA
:100B800000080025A9462046E11704EB5171C91061
:100B9000A4EBC10101F0FF08B8F1000F0CD000BFB9
:100BA00006E000222046611C8CB23254681C85B2DB
:100BB000C8F10800A842F4DC2046E11704EB5171AB
:100BC0004FEAE109002506E006EBC5003946FFF7CC
:100BD00075FF681C85B24D45F6DB2046BDE8F08701
:100BE0002DE9F04106460C4617460025A846E117B8
:100BF00004EB5171C910B4EBC10102D00020BDE873
:100C0000F0812046E11704EB51714FEAE10800251D
:100C100006E006EBC5003946FFF77DFF681C85B28C
:100C20004545F6DB2046EAE77FB5102533480068E6
:100C300000903248001D006801903048083000687C
:100C400002902E480830006803902D4A29466846D5
:100C5000FFF790FFFFF735FB2A48FFF777FB0024EB
:100C60000AE03520FFF7C8FD5DF82410254A02EBA5
:100C70008400FFF73BFC641C042CF2DBFFF72DFB28
:100C80007FBD30B589B010251C48006801901B4815
:100C9000001D00680290194808300068039017484A
:100CA0000830006804901748006805901548001D3A
:100CB00000680690134808300068079011480C300F
:100CC000006808900E4A294605A8FFF789FF00240E
:100CD0000BE001A850F8240005A951F8241088421F
:100CE00002D0002009B030BD641C042CF1DB0120CF
:100CF000F8E70000B979379E2037EFC6E8F7FF1F05
:100D00001800002000F80708064C074D06E0E068D0
:100D100040F0010394E8070098471034AC42F6D342
:100D2000FFF70AFA4C0D00086C0D000802E008C835
:100D3000121F08C1002AFAD170477047002001E055
:100D400001C1121F002AFBD1704700006C0D000882
:100D5000000000202C0000002C0D0008980D000859
:100D60002C000020040400003C0D000800A24A04EE
:100D7000000000000000000001020304060708094B
:100D8000000000006731326433633435363861392E
:080D90006265663700000000F7
:0400000508000131BD
:00000001FF
